S012000053746F7265795F5369782E73726563F9
S11300000C942A000C9434000C9434000C943400A6
S11300100C9434000C9434000C9434000C9434008C
S11300200C9434000C9434000C9434000C9434007C
S11300300C9434000C9434000C9434000C9434006C
S11300400C9434000C9434000C9434000C9434005C
S11300500C94340011241FBECFE5D8E0DEBFCDBF21
S11300600E9467020C9404030C940000CF93DF9366
S1130070CDB7DEB72C970FB6F894DEBF0FBECDBF59
S113008069877A878B879C8789859A85AB85BC85A8
S11300909C01AD0160E074E284EF90E00E94B8023C
S11300A0DC01CB0120E137E240E050E0BC01CD01AE
S11300B00E94C802DA01C9018D839E83AF83B88789
S11300C019821A821B821C820BC089819A81AB819E
S11300D0BC810196A11DB11D89839A83AB83BC8326
S11300E029813A814B815C818D819E81AF81B88564
S11300F0281739074A075B0740F300002C960FB610
S1130100F894DEBF0FBECDBFDF91CF910895CF939A
S1130110DF9300D0CDB7DEB789836A8389818830C5
S113012078F58A818130A1F48BE390E02BE330E011
S1130130F9012081622F2981422F50E021E030E033
S113014002C0220F331F4A95E2F7262BFC012083BD
S11301508A818823A9F48BE390E02BE330E0F90152
S11301602081622F2981422F50E021E030E002C03B
S1130170220F331F4A95E2F720952623FC012083A2
S113018089818830C0F189818031A8F58A818130E4
S1130190B9F488E390E028E330E0F9012081622F8C
S11301A02981222F30E0A9014850510921E030E093
S11301B002C0220F331F4A95E2F7262BFC0120834D
S11301C08A818823C1F488E390E028E330E0F901D0
S11301D02081622F2981222F30E0A9014850510942
S11301E021E030E002C0220F331F4A95E2F7209548
S11301F02623FC01208389818031C0F189818831E3
S1130200A8F58A818130B9F485E390E025E330E0F4
S1130210F9012081622F2981222F30E0A901405168
S1130220510921E030E002C0220F331F4A95E2F762
S1130230262BFC0120838A818823C1F485E390E086
S113024025E330E0F9012081622F2981222F30E05B
S1130250A9014051510921E030E002C0220F331FAF
S11302604A95E2F720952623FC0120838981893170
S1130270C0F189818032A8F58A818130B9F482E3A2
S113028090E022E330E0F9012081622F2981222FBE
S113029030E0A9014851510921E030E002C0220FA9
S11302A0331F4A95E2F7262BFC0120838A81882399
S11302B0C1F482E390E022E330E0F9012081622F6F
S11302C02981222F30E0A9014851510921E030E071
S11302D002C0220F331F4A95E2F720952623FC0122
S11302E0208300000F900F90DF91CF910895CF935A
S11302F0DF9300D0CDB7DEB789836A8389818830E4
S113030078F58A818130A1F48AE390E02AE330E031
S1130310F9012081622F2981422F50E021E030E051
S113032002C0220F331F4A95E2F7262BFC012083DB
S11303308A818823A9F48AE390E02AE330E0F90172
S11303402081622F2981422F50E021E030E002C059
S1130350220F331F4A95E2F720952623FC012083C0
S113036089818830C0F189818031A8F58A81813002
S1130370B9F487E390E027E330E0F9012081622FAC
S11303802981222F30E0A9014850510921E030E0B1
S113039002C0220F331F4A95E2F7262BFC0120836B
S11303A08A818823C1F487E390E027E330E0F901F0
S11303B02081622F2981222F30E0A9014850510960
S11303C021E030E002C0220F331F4A95E2F7209566
S11303D02623FC01208389818031C0F18981883101
S11303E0A8F58A818130B9F484E390E024E330E015
S11303F0F9012081622F2981222F30E0A901405187
S1130400510921E030E002C0220F331F4A95E2F780
S1130410262BFC0120838A818823C1F484E390E0A5
S113042024E330E0F9012081622F2981222F30E07A
S1130430A9014051510921E030E002C0220F331FCD
S11304404A95E2F720952623FC012083898189318E
S1130450C0F189818032A8F58A818130B9F481E3C1
S113046090E021E330E0F9012081622F2981222FDD
S113047030E0A9014851510921E030E002C0220FC7
S1130480331F4A95E2F7262BFC0120838A818823B7
S1130490C1F481E390E021E330E0F9012081622F8F
S11304A02981222F30E0A9014851510921E030E08F
S11304B002C0220F331F4A95E2F720952623FC0140
S11304C0208300000F900F90DF91CF910895CF9378
S11304D0DF93CDB7DEB761E08CE00E94770161E085
S11304E08DE00E94770161E08EE00E94770161E077
S11304F08FE00E94770161E08CE00E94870064E64F
S113050070E080E090E00E94360060E08CE00E94A1
S1130510870064E670E080E090E00E94360061E0CD
S11305208DE00E94870064E670E080E090E00E9425
S1130530360060E08DE00E94870064E670E080E0B1
S113054090E00E94360061E08EE00E94870064E63D
S113055070E080E090E00E94360060E08EE00E944F
S1130560870064E670E080E090E00E943600C3CF2C
S1130570DB018F939F930E94EA02BF91AF91A29FE8
S1130580800D911DA39F900DB29F900D112408958D
S1130590A1E21A2EAA1BBB1BFD010DC0AA1FBB1F83
S11305A0EE1FFF1FA217B307E407F50720F0A21BF5
S11305B0B30BE40BF50B661F771F881F991F1A9462
S11305C069F760957095809590959B01AC01BD018C
S11305D0CF0108950E94F502A59F900DB49F900D40
S11305E0A49F800D911D11240895A29FB001B39F73
S11305F0C001A39F700D811D1124911DB29F700D28
S10F0600811D1124911D0895F894FFCF72
S9030000FC
