S015000050726F6A6563745F66696E616C2E73726563CF
S11300000C9434000C9449000C9449000C9449005D
S11300100C9449000C9449000C9449000C94490038
S11300200C9449000C9449000C9449000C94490028
S11300300C9449000C9449000C9449000C94490018
S11300400C9449000C9449000C9449000C94490008
S11300500C9449000C9449000C9449000C944900F8
S11300600C9449000C94490011241FBECFEFD8E032
S1130070DEBFCDBF13E0A0E0B1E0EEE6F7E002C0E2
S113008005900D92A833B107D9F70E9442030C944E
S1130090B5030C9400002F923F924F925F926F929F
S11300A07F928F929F92AF92BF92CF92DF92EF9204
S11300B0FF920F931F93CF93DF93CDB7DEB7609773
S11300C00FB6F894DEBF0FBECDBF5C01FB019C01EF
S11300D020563F4F7A01605F7F4F8A019191D90189
S11300E08D919D018927D8018D938D01E617F7071E
S11300F0A9F76501B0E9CB0ED11CFA01858591857C
S11301009587958191879181958381838685968151
S11301109687868382859281928782838381978161
S1130120938393859783978593878787BA01605FC5
S11301307F4FDA01EC91F0E0E05DFD4F80818D931B
S1130140A617B707B9F78E010F5E1F4F0F2EFBE1FD
S11301509F2EF02DC7C0D2017D902D01DC018D9022
S1130160CD01872481920E171F07A9F7C701F90152
S1130170B08141807B2E74243280A381232C2A26D3
S1130180572C52248B2E8524772024F4E72DEE0F50
S1130190E92502C0E72DEE0F8E26FC01742C752490
S11301A0642C63241CF4660C692401C0660C762458
S11301B0632C652422201CF4220C292401C0220C67
S11301C062245A262B2E2A261CF4220C292401C030
S11301D0220C5224B3251CF4BB0FB92501C0BB0F5C
S11301E0BB231CF4BB0FB92501C0BB0FA4251CF411
S11301F0AA0FA92501C0AA0FAA231CF4AA0FA92596
S113020001C0AA0F4A2E4B261CF4440C492401C0F9
S1130210440CB4258B268082A4257A267182B625C7
S1130220B283A525A3832C5F3F4F049686179707B7
S113023009F09DCFDA011D968C911D9719969C911A
S113024019971D969C931D9715969C911597199631
S11302509C93199711969C91119715969C931597B9
S113026011968C9311971E968C911E9716969C91BD
S113027016971E969C931E9716968C9316971A960D
S11302808C911A9712969C9112971A969C931A978E
S113029012968C93129713968C91139717969C91A0
S11302A0179713969C9313971B969C911B971796DD
S11302B09C9317971F969C911F971B969C931B9733
S11302C01F968C93D701EC91F0E0E05DFD4F8081A7
S11302D08D93A617B707B9F7B0E1CB1AD108AC14C0
S11302E0BD0439F0C6019E012F5F3F4FF90127017C
S11302F032CFF50180E1A80EB11C9191D7012C9168
S113030092279D937D01AE16BF06B9F760960FB68E
S1130310F894DEBF0FBECDBFDF91CF911F910F9137
S1130320FF90EF90DF90CF90BF90AF909F908F9011
S11303307F906F905F904F903F902F9008953F92E1
S11303404F925F926F927F928F929F92AF92BF92E1
S1130350CF92DF92EF92FF920F931F93CF93DF938D
S1130360CDB7DEB762970FB6F894DEBF0FBECDBF30
S11303709A8B898BFB019C017A01605F7F4F8A0114
S11303809191D9018D919D018927D8018D938D017A
S11303906E177F07A9F7C988DA88B0E1CB0ED11CA4
S11303A0A988BA88E0EAAE0EB11CBE016F5E7F4F29
S11303B00F2EFBE19F2EF02D8A01005F1F4F78C0A6
S11303C0FC018190CF01E82DF0E0E050FF4FE08187
S11303D0ED93A617B707A1F78A819E819A839A8520
S11303E09E839E859A878E878B819B859B838B8733
S11303F08F819F859F838F8788899C85988B98851B
S11304009C879C8198878C83F701D9018C911196E4
S11304105C901197882E852412966C9012971396EF
S11304204C90962D9425782C792688201CF4880CE1
S1130430892401C0880CDF01382E3724832480826C
S1130440852C86241CF4880C892401C0880C57242C
S1130450582411965C92119799231CF4990F9925AD
S113046001C0990F6724692612966C92129784250D
S11304701CF4880F892501C0880F742487251396DE
S11304808C932C5F3F4F34966217730709F0BDCFEE
S1130490D601C801F7012D91308123272193E0175C
S11304A0F107C9F7B0E1CB0ED11CAC14BD0431F097
S11304B09E012F5F3F4FD901C70182CFDA01EC9132
S11304C0F0E0E050FF4F20812D93A817B907B9F74A
S11304D0FA01818195819183918595839585918791
S11304E08587828192859283828786819685968389
S11304F08687878593859787978193879381978349
S11305008383F50149895A8940555F4F9191D701F9
S11305102C9192279D937D014E175F07B9F7629640
S11305200FB6F894DEBF0FBECDBFDF91CF911F9100
S11305300F91FF90EF90DF90CF90BF90AF909F907E
S11305408F907F906F905F904F903F900895AF92FF
S1130550BF92DF92EF92FF920F931F93CF93DF939B
S1130560EC01DB019B01205F3F4FFB0189918193EB
S1130570E217F307D9F7FB013C960F2EF0E3AF2EF9
S1130580F3E0BF2EF02D64557F4FD0808D2D90E089
S113059080509F4FEC014881E180F2808F2D90E0E4
S11305A080509F4FEC012881038110E000501F4FC1
S11305B0E8015881E50139915E019C9139270E2D9E
S11305C010E000501F4FE8019881392734831196B9
S11305D09C9111972927258312968C911297852730
S11305E0868313969C9113974927478314969C916D
S11305F01497032F0927008715969C911597122F9E
S11306001927118716969C911697582F59275287A8
S113061017969C9117974927438718969C9118978A
S1130620302F3927348719969C911997212F292720
S113063025871A969C911A97852F892786871B965A
S11306409C911B97492747873D25308B2E25218B6D
S11306508F25828B70965B969C915B971F968C91ED
S11306601F978927838350966E177F0709F08DCFD4
S1130670DF91CF911F910F91FF90EF90DF90BF908A
S1130680AF900895CF93DF93CDB7DEB7C05FD109A4
S11306900FB6F894DEBF0FBECDBF80E1E0E0F2E01C
S11306A0DE01119601900D928A95E1F780E1E0E177
S11306B0F2E0DE01519601900D928A95E1F780E116
S11306C0E0E2F2E0DE01D19601900D928A95E1F725
S11306D0BE016F5B7F4FCE0101960E94A702AE015F
S11306E04F5D5F4FBE016F5E7F4FCE018F5B9F4FAB
S11306F00E949F0199A189A998130EC0FE01B29688
S1130700DE01D2969E012F5C3F4F91918D919813FB
S113071003C0E217F307C9F7AE014F5E5F4FBE0196
S11307206F5D7F4FCE018F5B9F4F0E944B0099A15D
S1130730898998130EC0FE01B296DE0152969E017D
S11307402F5C3F4F91918D91981303C0E217F307EB
S1130750C9F780E090E0C051DF4F0FB6F894DEBFD8
S11107600FBECDBFDF91CF910895F894FFCF67
S113076E637C777BF26B6FC53001672BFED7AB765C
S113077ECA82C97DFA5947F0ADD4A2AF9CA472C007
S113078EB7FD9326363FF7CC34A5E5F171D8311574
S113079E04C723C31896059A071280E2EB27B27595
S11307AE09832C1A1B6E5AA0523BD6B329E32F840D
S11307BE53D100ED20FCB15B6ACBBE394A4C58CF05
S11307CED0EFAAFB434D338545F9027F503C9FA8D9
S11307DE51A3408F929D38F5BCB6DA2110FFF3D2A7
S11307EECD0C13EC5F974417C4A77E3D645D19735B
S11307FE60814FDC222A908846EEB814DE5E0BDB55
S113080EE0323A0A4906245CC2D3AC629195E4798B
S113081EE7C8376D8DD54EA96C56F4EA657AAE08E5
S113082EBA78252E1CA6B4C6E8DD741F4BBD8B8A80
S113083E703EB5664803F60E613557B986C11D9EE6
S113084EE1F8981169D98E949B1E87E9CE5528DF5D
S113085E8CA1890DBFE6426841992D0FB054BB1689
S113086E000102030405060708090A0B0C0D0E0FFE
S113087E00112233445566778899AABBCCDDEEFF6E
S113088E69C4E0D86A7B0430D8CDB78070B4C55A39
S113089E52096AD53036A538BF40A39E81F3D7FBE3
S11308AE7CE339829B2FFF87348E4344C4DEE9CB2D
S11308BE547B9432A6C2233DEE4C950B42FAC34EA2
S11308CE082EA16628D924B2765BA2496D8BD12558
S11308DE72F8F66486689816D4A45CCC5D65B692FC
S11308EE6C704850FDEDB9DA5E154657A78D9D84A0
S11308FE90D8AB008CBCD30AF7E45805B8B34506C0
S113090ED02C1E8FCA3F0F02C1AFBD0301138A6BD9
S113091E3A9111414F67DCEA97F2CFCEF0B4E67309
S113092E96AC7422E7AD3585E2F937E81C75DF6EB7
S113093E47F11A711D29C5896FB7620EAA18BE1B1D
S113094EFC563E4BC6D279209ADBC0FE78CD5AF4C3
S113095E1FDDA8338807C731B11210592780EC5F09
S113096E60517FA919B54A0D2DE57A9F93C99CEF65
S113097EA0E03B4DAE2AF5B0C8EBBB3C8353996166
S113098E172B047EBA77D626E169146355210C7DA4
S10B099E01020408102040804E
S9030000FC
