S0120000426C696E6B5F4C6564732E737265633B
S11300000C942A000C9434000C9434000C943400A6
S11300100C9434000C9434000C9434000C9434008C
S11300200C9434000C9434000C9434000C9434007C
S11300300C9434000C9434000C9434000C9434006C
S11300400C9434000C9434000C9434000C9434005C
S11300500C94340011241FBECFE5D8E0DEBFCDBF21
S11300600E9436000C9453000C94000087B3806FF8
S113007087BB88B3806F88BB2FEF83ED90E321505B
S113008080409040E1F700C00000C498C598C6982D
S1130090C7982FEF83ED90E3215080409040E1F723
S10D00A000C00000E6CFF894FFCF83
S9030000FC
