S012000053746F72795F466976652E7372656308
S11300000C942A000C9434000C9434000C943400A6
S11300100C9434000C9434000C9434000C9434008C
S11300200C9434000C9434000C9434000C9434007C
S11300300C9434000C9434000C9434000C9434006C
S11300400C9434000C9434000C9434000C9434005C
S11300500C94340011241FBECFE5D8E0DEBFCDBF21
S11300600E94EC020C945E030C940000CF93DF9387
S1130070CDB7DEB728970FB6F894DEBF0FBECDBF5D
S11300806D837E838F8398878D819E81AF81B885B0
S11300909C01AD0160E074E284EF90E00E941203E1
S11300A0DC01CB0128EE33E040E050E0BC01CD019F
S11300B00E942203DA01C90189839A83AB83BC833A
S11300C019821A821B821C820000000028960FB637
S11300D0F894DEBF0FBECDBFDF91CF910895CF93CB
S11300E0DF9300D0CDB7DEB789836A8389818830F6
S11300F078F58A818130A1F48BE390E02BE330E042
S1130100F9012081622F2981422F50E021E030E063
S113011002C0220F331F4A95E2F7262BFC012083ED
S11301208A818823A9F48BE390E02BE330E0F90182
S11301302081622F2981422F50E021E030E002C06B
S1130140220F331F4A95E2F720952623FC012083D2
S113015089818830C0F189818031A8F58A81813014
S1130160B9F488E390E028E330E0F9012081622FBC
S11301702981222F30E0A9014850510921E030E0C3
S113018002C0220F331F4A95E2F7262BFC0120837D
S11301908A818823C1F488E390E028E330E0F90100
S11301A02081622F2981222F30E0A9014850510972
S11301B021E030E002C0220F331F4A95E2F7209578
S11301C02623FC01208389818031C0F18981883113
S11301D0A8F58A818130B9F485E390E025E330E025
S11301E0F9012081622F2981222F30E0A901405199
S11301F0510921E030E002C0220F331F4A95E2F793
S1130200262BFC0120838A818823C1F485E390E0B6
S113021025E330E0F9012081622F2981222F30E08B
S1130220A9014051510921E030E002C0220F331FDF
S11302304A95E2F720952623FC01208389818931A0
S1130240C0F189818032A8F58A818130B9F482E3D2
S113025090E022E330E0F9012081622F2981222FEE
S113026030E0A9014851510921E030E002C0220FD9
S1130270331F4A95E2F7262BFC0120838A818823C9
S1130280C1F482E390E022E330E0F9012081622F9F
S11302902981222F30E0A9014851510921E030E0A1
S11302A002C0220F331F4A95E2F720952623FC0152
S11302B0208300000F900F90DF91CF910895CF938A
S11302C0DF9300D0CDB7DEB789836A838981883014
S11302D078F58A818130A1F48AE390E02AE330E062
S11302E0F9012081622F2981422F50E021E030E082
S11302F002C0220F331F4A95E2F7262BFC0120830C
S11303008A818823A9F48AE390E02AE330E0F901A2
S11303102081622F2981422F50E021E030E002C089
S1130320220F331F4A95E2F720952623FC012083F0
S113033089818830C0F189818031A8F58A81813032
S1130340B9F487E390E027E330E0F9012081622FDC
S11303502981222F30E0A9014850510921E030E0E1
S113036002C0220F331F4A95E2F7262BFC0120839B
S11303708A818823C1F487E390E027E330E0F90120
S11303802081622F2981222F30E0A9014850510990
S113039021E030E002C0220F331F4A95E2F7209596
S11303A02623FC01208389818031C0F18981883131
S11303B0A8F58A818130B9F484E390E024E330E045
S11303C0F9012081622F2981222F30E0A9014051B7
S11303D0510921E030E002C0220F331F4A95E2F7B1
S11303E0262BFC0120838A818823C1F484E390E0D6
S11303F024E330E0F9012081622F2981222F30E0AB
S1130400A9014051510921E030E002C0220F331FFD
S11304104A95E2F720952623FC01208389818931BE
S1130420C0F189818032A8F58A818130B9F481E3F1
S113043090E021E330E0F9012081622F2981222F0D
S113044030E0A9014851510921E030E002C0220FF7
S1130450331F4A95E2F7262BFC0120838A818823E7
S1130460C1F481E390E021E330E0F9012081622FBF
S11304702981222F30E0A9014851510921E030E0BF
S113048002C0220F331F4A95E2F720952623FC0170
S1130490208300000F900F90DF91CF910895CF93A8
S11304A0DF9300D0CDB7DEB78A8319828A81883082
S11304B0D8F489E390E0FC018081282F30E08A8120
S11304C0482F50E081E090E002C0880F991F4A95C0
S11304D0E2F7822393232A81222F30E002C09595EC
S11304E087952A95E2F789838A81883018F18A8171
S11304F0803100F586E390E0FC018081282F30E014
S11305008A81882F90E0AC014850510981E090E045
S113051002C0880F991F4A95E2F7822393232A8108
S1130520222F30E02850310902C0959587952A95ED
S1130530E2F789838A81803118F18A81883100F554
S113054083E390E0FC018081282F30E08A81882FAA
S113055090E0AC014051510981E090E002C0880F65
S1130560991F4A95E2F7822393232A81222F30E0B0
S11305702051310902C0959587952A95E2F7898320
S11305808A81893118F18A81803200F580E390E014
S1130590FC018081282F30E08A81882F90E0AC0113
S11305A04851510981E090E002C0880F991F4A9593
S11305B0E2F7822393232A81222F30E02851310944
S11305C002C0959587952A95E2F7898389810F90D2
S11305D00F90DF91CF910895CF93DF93CDB7DEB71E
S11305E060E08AE00E945F0161E08DE00E945F01AB
S11305F08AE00E944F02813081F40AC061E08DE0FC
S11306000E946F0068EE73E080E090E00E94360084
S11306108AE00E944F02813089F360E08DE00E94FD
S11306206F00E6CFDB018F939F930E944403BF9139
S1130630AF91A29F800D911DA39F900DB29F900D2D
S113064011240895A1E21A2EAA1BBB1BFD010DC0A3
S1130650AA1FBB1FEE1FFF1FA217B307E407F5076E
S113066020F0A21BB30BE40BF50B661F771F881F4A
S1130670991F1A9469F760957095809590959B01E0
S1130680AC01BD01CF0108950E944F03A59F900DB9
S1130690B49F900DA49F800D911D11240895A29FD5
S11306A0B001B39FC001A39F700D811D1124911D42
S11306B0B29F700D811D1124911D0895F894FFCFF0
S9030000FC
