S012000044656C61795F66756E632E7372656318
S11300000C942A000C9434000C9434000C943400A6
S11300100C9434000C9434000C9434000C9434008C
S11300200C9434000C9434000C9434000C9434007C
S11300300C9434000C9434000C9434000C9434006C
S11300400C9434000C9434000C9434000C9434005C
S11300500C94340011241FBECFE5D8E0DEBFCDBF21
S11300600E9469000C94CB000C940000CF93DF93A2
S113007000D000D01F92CDB7DEB78D838D81882F3D
S113008090E0A0E0B0E09C01AD0160E074E284EF98
S113009090E00E947F00DC01CB0128EE33E040E0D9
S11300A050E0BC01CD010E948F00DA01C9018983AF
S11300B09A83AB83BC8319821A821B821C82000040
S11300C000000F900F900F900F900F90DF91CF9141
S11300D00895CF93DF9300D0CDB7DEB71A8219828B
S11300E084E60E94360089819A8101969A838983E5
S11300F080E090E00F900F90DF91CF910895DB01A5
S11301008F939F930E94B100BF91AF91A29F800DE6
S1130110911DA39F900DB29F900D11240895A1E20B
S11301201A2EAA1BBB1BFD010DC0AA1FBB1FEE1F6D
S1130130FF1FA217B307E407F50720F0A21BB30BB8
S1130140E40BF50B661F771F881F991F1A9469F734
S113015060957095809590959B01AC01BD01CF0190
S113016008950E94BC00A59F900DB49F900DA49F7C
S1130170800D911D11240895A29FB001B39FC00169
S1130180A39F700D811D1124911DB29F700D811DBF
S10D01901124911D0895F894FFCF87
S9030000FC
