S02200004156525F41746D65676133325F46697273745F50726F6A6563742E7372656369
S11300000C942A000C9434000C9434000C943400A6
S11300100C9434000C9434000C9434000C9434008C
S11300200C9434000C9434000C9434000C9434007C
S11300300C9434000C9434000C9434000C9434006C
S11300400C9434000C9434000C9434000C9434005C
S11300500C94340011241FBECFE5D8E0DEBFCDBF21
S11300600E94F2010C940D020C940000CF93DF93D4
S113007000D0CDB7DEB789836A838981883078F56B
S11300808A818130A1F48BE390E02BE330E0F90125
S11300902081622F2981422F50E021E030E002C00C
S11300A0220F331F4A95E2F7262BFC0120838A8115
S11300B08823A9F48BE390E02BE330E0F90120815D
S11300C0622F2981422F50E021E030E002C0220F4C
S11300D0331F4A95E2F720952623FC01208389816A
S11300E0883090F18981803178F58A818130A1F45A
S11300F088E390E028E330E0F9012081622F298130
S1130100422F50E021E030E002C0220F331F4A9515
S1130110E2F7262BFC0120838A818823A9F488E353
S113012090E028E330E0F9012081622F2981422FF9
S113013050E021E030E002C0220F331F4A95E2F77D
S113014020952623FC0120838981803190F18981C7
S1130150883178F58A818130A1F485E390E025E344
S113016030E0F9012081622F2981422F50E021E003
S113017030E002C0220F331F4A95E2F7262BFC0120
S113018020838A818823A9F485E390E025E330E085
S1130190F9012081622F2981422F50E021E030E0D3
S11301A002C0220F331F4A95E2F720952623FC0153
S11301B020838981893190F18981803278F58A811F
S11301C08130A1F482E390E022E330E0F901208160
S11301D0622F2981422F50E021E030E002C0220F3B
S11301E0331F4A95E2F7262BFC0120838A8188235A
S11301F0A9F482E390E022E330E0F9012081622F48
S11302002981422F50E021E030E002C0220F331F49
S11302104A95E2F720952623FC01208300000F90E5
S11302200F90DF91CF910895CF93DF9300D0CDB796
S1130230DEB789836A838981883078F58A81813041
S1130240A1F48AE390E02AE330E0F9012081622FEF
S11302502981422F50E021E030E002C0220F331FF9
S11302604A95E2F7262BFC0120838A818823A9F48E
S11302708AE390E02AE330E0F9012081622F2981AA
S1130280422F50E021E030E002C0220F331F4A9594
S1130290E2F720952623FC0120838981883090F1A0
S11302A08981803178F58A818130A1F487E390E0F7
S11302B027E330E0F9012081622F2981422F50E0A9
S11302C021E030E002C0220F331F4A95E2F7262BCB
S11302D0FC0120838A818823A9F487E390E027E343
S11302E030E0F9012081622F2981422F50E021E082
S11302F030E002C0220F331F4A95E2F720952623EF
S1130300FC0120838981803190F18981883178F5DD
S11303108A818130A1F484E390E024E330E0F901A0
S11303202081622F2981422F50E021E030E002C079
S1130330220F331F4A95E2F7262BFC0120838A8182
S11303408823A9F484E390E024E330E0F9012081D8
S1130350622F2981422F50E021E030E002C0220FB9
S1130360331F4A95E2F720952623FC0120838981D7
S1130370893190F18981803278F58A818130A1F4C4
S113038081E390E021E330E0F9012081622F2981AB
S1130390422F50E021E030E002C0220F331F4A9583
S11303A0E2F7262BFC0120838A818823A9F481E3C8
S11303B090E021E330E0F9012081622F2981422F6E
S11303C050E021E030E002C0220F331F4A95E2F7EB
S11303D020952623FC01208300000F900F90DF91CD
S11303E0CF910895CF93DF9300D0CDB7DEB71A82B3
S11303F0198261E080E00E94140161E080E00E94C3
S1130400360089819A8101969A83898380E090E0FD
S11104100F900F90DF91CF910895F894FFCFD5
S9030000FC
