S013000053746F72795F45696768742E73726563A0
S11300000C942A000C9434000C9434000C943400A6
S11300100C9434000C9434000C9434000C9434008C
S11300200C9434000C9434000C9434000C9434007C
S11300300C9434000C9434000C9434000C9434006C
S11300400C9434000C9434000C9434000C9434005C
S11300500C94340011241FBECFE5D8E0DEBFCDBF21
S11300600E94AB020C94EE020C940000CF93DF9339
S1130070CDB7DEB783E590E023E530E0F9012081D8
S11300802F7BFC01208383E590E023E530E0F90138
S113009020812860FC01208383E590E023E530E0A3
S11300A0F90120812061FC01208383E590E023E5B0
S11300B030E0F90120812062FC01208383E590E097
S11300C023E530E0F90120812160FC01208383E5F0
S11300D090E023E530E0F90120812260FC012083D7
S11300E083E590E023E530E0F90120812B7FFC01DA
S11300F020838CE590E029EFFC0120830000DF9150
S1130100CF910895CF93DF93CDB7DEB728970FB67D
S1130110F894DEBF0FBECDBF6D837E838F83988737
S113012019821A821B821C821FC0000088E590E09D
S1130130FC018081882F90E082709927892BB1F38C
S113014088E590E028E530E0F90120812260FC0197
S1130150208389819A81AB81BC810196A11DB11D47
S113016089839A83AB83BC8329813A814B815C81E7
S11301708D819E81AF81B885281739074A075B07AF
S1130180A0F2000028960FB6F894DEBF0FBECDBFD4
S1130190DF91CF910895CF93DF9300D0CDB7DEB731
S11301A089836A838981883078F58A818130A1F4D2
S11301B08BE390E02BE330E0F9012081622F298169
S11301C0422F50E021E030E002C0220F331F4A9555
S11301D0E2F7262BFC0120838A818823A9F48BE390
S11301E090E02BE330E0F9012081622F2981422F36
S11301F050E021E030E002C0220F331F4A95E2F7BD
S113020020952623FC01208389818830C0F18981CF
S11302108031A8F58A818130B9F488E390E028E33D
S113022030E0F9012081622F2981222F30E0A901D9
S11302304850510921E030E002C0220F331F4A9593
S1130240E2F7262BFC0120838A818823C1F488E30A
S113025090E028E330E0F9012081622F2981222FE8
S113026030E0A9014850510921E030E002C0220FDA
S1130270331F4A95E2F720952623FC0120838981C8
S11302808031C0F189818831A8F58A818130B9F43F
S113029085E390E025E330E0F9012081622F298194
S11302A0222F30E0A9014051510921E030E002C081
S11302B0220F331F4A95E2F7262BFC0120838A8103
S11302C08823C1F485E390E025E330E0F90120813F
S11302D0622F2981222F30E0A9014051510921E0E8
S11302E030E002C0220F331F4A95E2F720952623FF
S11302F0FC01208389818931C0F189818032A8F58C
S11303008A818130B9F482E390E022E330E0F9019C
S11303102081622F2981222F30E0A90148515109FF
S113032021E030E002C0220F331F4A95E2F7262B6A
S1130330FC0120838A818823C1F482E390E022E3D4
S113034030E0F9012081622F2981222F30E0A901B8
S11303504851510921E030E002C0220F331F4A9571
S1130360E2F720952623FC01208300000F900F90D4
S1130370DF91CF910895CF93DF9300D0CDB7DEB74F
S113038089836A838981883078F58A818130A1F4F0
S11303908AE390E02AE330E0F9012081622F298189
S11303A0422F50E021E030E002C0220F331F4A9573
S11303B0E2F7262BFC0120838A818823A9F48AE3AF
S11303C090E02AE330E0F9012081622F2981422F55
S11303D050E021E030E002C0220F331F4A95E2F7DB
S11303E020952623FC01208389818830C0F18981EE
S11303F08031A8F58A818130B9F487E390E027E35E
S113040030E0F9012081622F2981222F30E0A901F7
S11304104850510921E030E002C0220F331F4A95B1
S1130420E2F7262BFC0120838A818823C1F487E329
S113043090E027E330E0F9012081622F2981222F07
S113044030E0A9014850510921E030E002C0220FF8
S1130450331F4A95E2F720952623FC0120838981E6
S11304608031C0F189818831A8F58A818130B9F45D
S113047084E390E024E330E0F9012081622F2981B4
S1130480222F30E0A9014051510921E030E002C09F
S1130490220F331F4A95E2F7262BFC0120838A8121
S11304A08823C1F484E390E024E330E0F90120815F
S11304B0622F2981222F30E0A9014051510921E006
S11304C030E002C0220F331F4A95E2F7209526231D
S11304D0FC01208389818931C0F189818032A8F5AA
S11304E08A818130B9F481E390E021E330E0F901BD
S11304F02081622F2981222F30E0A901485151091E
S113050021E030E002C0220F331F4A95E2F7262B88
S1130510FC0120838A818823C1F481E390E021E3F4
S113052030E0F9012081622F2981222F30E0A901D6
S11305304851510921E030E002C0220F331F4A958F
S1130540E2F720952623FC01208300000F900F90F2
S1130550DF91CF910895CF93DF93CDB7DEB761E0FC
S11305608CE00E94BB0161E08DE00E94BB0161E070
S11305708EE00E94BB0161E08FE00E94BB010E94FB
S1130580360060E08CE00E94CB0060E08DE00E94C9
S1130590CB0060E08EE00E94CB0060E08FE00E9420
S11305A0CB0068EE73E080E090E00E94820061E09E
S11305B08CE00E94CB0061E08DE00E94CB0061E002
S11305C08EE00E94CB0061E08FE00E94CB0068EED9
S11305D073E080E090E00E948200D3CFF894FFCFD4
S9030000FC
